{
  "contractName": "Nyfti",
  "abi": [
    {
      "inputs": [],
      "stateMutability": "nonpayable",
      "type": "constructor"
    },
    {
      "anonymous": false,
      "inputs": [
        {
          "indexed": true,
          "internalType": "address",
          "name": "owner",
          "type": "address"
        },
        {
          "indexed": true,
          "internalType": "address",
          "name": "approved",
          "type": "address"
        },
        {
          "indexed": true,
          "internalType": "uint256",
          "name": "tokenId",
          "type": "uint256"
        }
      ],
      "name": "Approval",
      "type": "event"
    },
    {
      "anonymous": false,
      "inputs": [
        {
          "indexed": true,
          "internalType": "address",
          "name": "owner",
          "type": "address"
        },
        {
          "indexed": true,
          "internalType": "address",
          "name": "operator",
          "type": "address"
        },
        {
          "indexed": false,
          "internalType": "bool",
          "name": "approved",
          "type": "bool"
        }
      ],
      "name": "ApprovalForAll",
      "type": "event"
    },
    {
      "anonymous": false,
      "inputs": [
        {
          "indexed": true,
          "internalType": "address",
          "name": "from",
          "type": "address"
        },
        {
          "indexed": true,
          "internalType": "address",
          "name": "to",
          "type": "address"
        },
        {
          "indexed": true,
          "internalType": "uint256",
          "name": "tokenId",
          "type": "uint256"
        }
      ],
      "name": "Transfer",
      "type": "event"
    },
    {
      "inputs": [
        {
          "internalType": "address",
          "name": "to",
          "type": "address"
        },
        {
          "internalType": "uint256",
          "name": "tokenId",
          "type": "uint256"
        }
      ],
      "name": "approve",
      "outputs": [],
      "stateMutability": "nonpayable",
      "type": "function"
    },
    {
      "inputs": [
        {
          "internalType": "address",
          "name": "owner",
          "type": "address"
        }
      ],
      "name": "balanceOf",
      "outputs": [
        {
          "internalType": "uint256",
          "name": "",
          "type": "uint256"
        }
      ],
      "stateMutability": "view",
      "type": "function",
      "constant": true
    },
    {
      "inputs": [],
      "name": "baseURI",
      "outputs": [
        {
          "internalType": "string",
          "name": "",
          "type": "string"
        }
      ],
      "stateMutability": "view",
      "type": "function",
      "constant": true
    },
    {
      "inputs": [
        {
          "internalType": "uint256",
          "name": "tokenId",
          "type": "uint256"
        }
      ],
      "name": "getApproved",
      "outputs": [
        {
          "internalType": "address",
          "name": "",
          "type": "address"
        }
      ],
      "stateMutability": "view",
      "type": "function",
      "constant": true
    },
    {
      "inputs": [
        {
          "internalType": "address",
          "name": "owner",
          "type": "address"
        },
        {
          "internalType": "address",
          "name": "operator",
          "type": "address"
        }
      ],
      "name": "isApprovedForAll",
      "outputs": [
        {
          "internalType": "bool",
          "name": "",
          "type": "bool"
        }
      ],
      "stateMutability": "view",
      "type": "function",
      "constant": true
    },
    {
      "inputs": [],
      "name": "name",
      "outputs": [
        {
          "internalType": "string",
          "name": "",
          "type": "string"
        }
      ],
      "stateMutability": "view",
      "type": "function",
      "constant": true
    },
    {
      "inputs": [
        {
          "internalType": "uint256",
          "name": "",
          "type": "uint256"
        }
      ],
      "name": "names",
      "outputs": [
        {
          "internalType": "string",
          "name": "",
          "type": "string"
        }
      ],
      "stateMutability": "view",
      "type": "function",
      "constant": true
    },
    {
      "inputs": [
        {
          "internalType": "uint256",
          "name": "tokenId",
          "type": "uint256"
        }
      ],
      "name": "ownerOf",
      "outputs": [
        {
          "internalType": "address",
          "name": "",
          "type": "address"
        }
      ],
      "stateMutability": "view",
      "type": "function",
      "constant": true
    },
    {
      "inputs": [
        {
          "internalType": "address",
          "name": "from",
          "type": "address"
        },
        {
          "internalType": "address",
          "name": "to",
          "type": "address"
        },
        {
          "internalType": "uint256",
          "name": "tokenId",
          "type": "uint256"
        }
      ],
      "name": "safeTransferFrom",
      "outputs": [],
      "stateMutability": "nonpayable",
      "type": "function"
    },
    {
      "inputs": [
        {
          "internalType": "address",
          "name": "from",
          "type": "address"
        },
        {
          "internalType": "address",
          "name": "to",
          "type": "address"
        },
        {
          "internalType": "uint256",
          "name": "tokenId",
          "type": "uint256"
        },
        {
          "internalType": "bytes",
          "name": "_data",
          "type": "bytes"
        }
      ],
      "name": "safeTransferFrom",
      "outputs": [],
      "stateMutability": "nonpayable",
      "type": "function"
    },
    {
      "inputs": [
        {
          "internalType": "address",
          "name": "operator",
          "type": "address"
        },
        {
          "internalType": "bool",
          "name": "approved",
          "type": "bool"
        }
      ],
      "name": "setApprovalForAll",
      "outputs": [],
      "stateMutability": "nonpayable",
      "type": "function"
    },
    {
      "inputs": [
        {
          "internalType": "bytes4",
          "name": "interfaceId",
          "type": "bytes4"
        }
      ],
      "name": "supportsInterface",
      "outputs": [
        {
          "internalType": "bool",
          "name": "",
          "type": "bool"
        }
      ],
      "stateMutability": "view",
      "type": "function",
      "constant": true
    },
    {
      "inputs": [],
      "name": "symbol",
      "outputs": [
        {
          "internalType": "string",
          "name": "",
          "type": "string"
        }
      ],
      "stateMutability": "view",
      "type": "function",
      "constant": true
    },
    {
      "inputs": [
        {
          "internalType": "uint256",
          "name": "index",
          "type": "uint256"
        }
      ],
      "name": "tokenByIndex",
      "outputs": [
        {
          "internalType": "uint256",
          "name": "",
          "type": "uint256"
        }
      ],
      "stateMutability": "view",
      "type": "function",
      "constant": true
    },
    {
      "inputs": [
        {
          "internalType": "address",
          "name": "owner",
          "type": "address"
        },
        {
          "internalType": "uint256",
          "name": "index",
          "type": "uint256"
        }
      ],
      "name": "tokenOfOwnerByIndex",
      "outputs": [
        {
          "internalType": "uint256",
          "name": "",
          "type": "uint256"
        }
      ],
      "stateMutability": "view",
      "type": "function",
      "constant": true
    },
    {
      "inputs": [
        {
          "internalType": "uint256",
          "name": "tokenId",
          "type": "uint256"
        }
      ],
      "name": "tokenURI",
      "outputs": [
        {
          "internalType": "string",
          "name": "",
          "type": "string"
        }
      ],
      "stateMutability": "view",
      "type": "function",
      "constant": true
    },
    {
      "inputs": [],
      "name": "totalSupply",
      "outputs": [
        {
          "internalType": "uint256",
          "name": "",
          "type": "uint256"
        }
      ],
      "stateMutability": "view",
      "type": "function",
      "constant": true
    },
    {
      "inputs": [
        {
          "internalType": "address",
          "name": "from",
          "type": "address"
        },
        {
          "internalType": "address",
          "name": "to",
          "type": "address"
        },
        {
          "internalType": "uint256",
          "name": "tokenId",
          "type": "uint256"
        }
      ],
      "name": "transferFrom",
      "outputs": [],
      "stateMutability": "nonpayable",
      "type": "function"
    },
    {
      "inputs": [
        {
          "internalType": "string",
          "name": "_name",
          "type": "string"
        }
      ],
      "name": "mint",
      "outputs": [],
      "stateMutability": "nonpayable",
      "type": "function"
    },
    {
      "inputs": [
        {
          "internalType": "string",
          "name": "_name",
          "type": "string"
        }
      ],
      "name": "checkName",
      "outputs": [
        {
          "internalType": "bool",
          "name": "",
          "type": "bool"
        }
      ],
      "stateMutability": "view",
      "type": "function",
      "constant": true
    },
    {
      "inputs": [
        {
          "internalType": "string",
          "name": "_name",
          "type": "string"
        }
      ],
      "name": "checkOwner",
      "outputs": [
        {
          "internalType": "address",
          "name": "",
          "type": "address"
        }
      ],
      "stateMutability": "view",
      "type": "function",
      "constant": true
    },
    {
      "inputs": [
        {
          "internalType": "string",
          "name": "_oldName",
          "type": "string"
        },
        {
          "internalType": "string",
          "name": "_newName",
          "type": "string"
        }
      ],
      "name": "rename",
      "outputs": [],
      "stateMutability": "nonpayable",
      "type": "function"
    },
    {
      "inputs": [
        {
          "internalType": "uint256",
          "name": "_block",
          "type": "uint256"
        }
      ],
      "name": "getStatBlock",
      "outputs": [
        {
          "components": [
            {
              "internalType": "string",
              "name": "name",
              "type": "string"
            },
            {
              "internalType": "uint256",
              "name": "speed",
              "type": "uint256"
            },
            {
              "internalType": "uint256",
              "name": "health",
              "type": "uint256"
            },
            {
              "internalType": "uint256",
              "name": "attackPower",
              "type": "uint256"
            }
          ],
          "internalType": "struct Nyfti.statBlock",
          "name": "",
          "type": "tuple"
        }
      ],
      "stateMutability": "view",
      "type": "function",
      "constant": true
    }
  ],
  "bytecode": "0x60806040523480156200001157600080fd5b506040518060400160405280600581526020017f4e796674690000000000000000000000000000000000000000000000000000008152506040518060400160405280600381526020017f4e46540000000000000000000000000000000000000000000000000000000000815250620000966301ffc9a760e01b6200011860201b60201c565b8160069080519060200190620000ae929190620001f0565b508060079080519060200190620000c7929190620001f0565b50620000e06380ac58cd60e01b6200011860201b60201c565b620000f8635b5e139f60e01b6200011860201b60201c565b6200011063780e9d6360e01b6200011860201b60201c565b505062000314565b63ffffffff60e01b817bffffffffffffffffffffffffffffffffffffffffffffffffffffffff1916141562000184576040517f08c379a00000000000000000000000000000000000000000000000000000000081526004016200017b90620002e1565b60405180910390fd5b6001600080837bffffffffffffffffffffffffffffffffffffffffffffffffffffffff19167bffffffffffffffffffffffffffffffffffffffffffffffffffffffff1916815260200190815260200160002060006101000a81548160ff02191690831515021790555050565b828054600181600116156101000203166002900490600052602060002090601f016020900481019282601f106200023357805160ff191683800117855562000264565b8280016001018555821562000264579182015b828111156200026357825182559160200191906001019062000246565b5b50905062000273919062000277565b5090565b6200029c91905b80821115620002985760008160009055506001016200027e565b5090565b90565b6000620002ae601c8362000303565b91507f4552433136353a20696e76616c696420696e74657266616365206964000000006000830152602082019050919050565b60006020820190508181036000830152620002fc816200029f565b9050919050565b600082825260208201905092915050565b613a3c80620003246000396000f3fe608060405234801561001057600080fd5b506004361061014d5760003560e01c80636352211e116100c3578063a22cb4651161007c578063a22cb465146103ea578063b88d4fde14610406578063bdbb119b14610422578063c87b56dd14610452578063d85d3d2714610482578063e985e9c51461049e5761014d565b80636352211e146103025780636c0360eb1461033257806370a08231146103505780638aa416061461038057806395d89b41146103b05780639c7c722b146103ce5761014d565b806318160ddd1161011557806318160ddd1461021c57806323b872dd1461023a5780632f745c591461025657806342842e0e146102865780634622ab03146102a25780634f6ccce7146102d25761014d565b806301ffc9a71461015257806306fdde0314610182578063081812fc146101a0578063095ea7b3146101d05780631400d1e4146101ec575b600080fd5b61016c600480360361016791908101906128eb565b6104ce565b6040516101799190613488565b60405180910390f35b61018a610535565b60405161019791906134c5565b60405180910390f35b6101ba60048036036101b591908101906129ea565b6105d7565b6040516101c79190613421565b60405180910390f35b6101ea60048036036101e591908101906128af565b61065c565b005b6102066004803603610201919081019061293d565b610774565b6040516102139190613488565b60405180910390f35b6102246107a9565b6040516102319190613789565b60405180910390f35b610254600480360361024f91908101906127a9565b6107ba565b005b610270600480360361026b91908101906128af565b61081a565b60405161027d9190613789565b60405180910390f35b6102a0600480360361029b91908101906127a9565b610875565b005b6102bc60048036036102b791908101906129ea565b610895565b6040516102c991906134a3565b60405180910390f35b6102ec60048036036102e791908101906129ea565b61094e565b6040516102f99190613789565b60405180910390f35b61031c600480360361031791908101906129ea565b610971565b6040516103299190613421565b60405180910390f35b61033a6109a8565b60405161034791906134c5565b60405180910390f35b61036a60048036036103659190810190612744565b610a4a565b6040516103779190613789565b60405180910390f35b61039a600480360361039591908101906129ea565b610b09565b6040516103a79190613767565b60405180910390f35b6103b8610ccb565b6040516103c591906134c5565b60405180910390f35b6103e860048036036103e3919081019061297e565b610d6d565b005b61040460048036036103ff9190810190612873565b611023565b005b610420600480360361041b91908101906127f8565b6111a4565b005b61043c6004803603610437919081019061293d565b611206565b6040516104499190613421565b60405180910390f35b61046c600480360361046791908101906129ea565b61124e565b60405161047991906134c5565b60405180910390f35b61049c6004803603610497919081019061293d565b6113d9565b005b6104b860048036036104b3919081019061276d565b611602565b6040516104c59190613488565b60405180910390f35b6000806000837bffffffffffffffffffffffffffffffffffffffffffffffffffffffff19167bffffffffffffffffffffffffffffffffffffffffffffffffffffffff1916815260200190815260200160002060009054906101000a900460ff169050919050565b606060068054600181600116156101000203166002900480601f0160208091040260200160405190810160405280929190818152602001828054600181600116156101000203166002900480156105cd5780601f106105a2576101008083540402835291602001916105cd565b820191906000526020600020905b8154815290600101906020018083116105b057829003601f168201915b5050505050905090565b60006105e282611696565b610621576040517f08c379a0000000000000000000000000000000000000000000000000000000008152600401610618906136a7565b60405180910390fd5b6004600083815260200190815260200160002060009054906101000a900473ffffffffffffffffffffffffffffffffffffffff169050919050565b600061066782610971565b90508073ffffffffffffffffffffffffffffffffffffffff168373ffffffffffffffffffffffffffffffffffffffff1614156106d8576040517f08c379a00000000000000000000000000000000000000000000000000000000081526004016106cf90613707565b60405180910390fd5b8073ffffffffffffffffffffffffffffffffffffffff166106f76116b3565b73ffffffffffffffffffffffffffffffffffffffff1614806107265750610725816107206116b3565b611602565b5b610765576040517f08c379a000000000000000000000000000000000000000000000000000000000815260040161075c90613607565b60405180910390fd5b61076f83836116bb565b505050565b6000600b8260405161078691906133e6565b908152602001604051809103902060009054906101000a900460ff169050919050565b60006107b56002611774565b905090565b6107cb6107c56116b3565b82611789565b61080a576040517f08c379a000000000000000000000000000000000000000000000000000000000815260040161080190613727565b60405180910390fd5b610815838383611867565b505050565b600061086d82600160008673ffffffffffffffffffffffffffffffffffffffff1673ffffffffffffffffffffffffffffffffffffffff168152602001908152602001600020611a7e90919063ffffffff16565b905092915050565b610890838383604051806020016040528060008152506111a4565b505050565b600a81815481106108a257fe5b906000526020600020016000915090508054600181600116156101000203166002900480601f0160208091040260200160405190810160405280929190818152602001828054600181600116156101000203166002900480156109465780601f1061091b57610100808354040283529160200191610946565b820191906000526020600020905b81548152906001019060200180831161092957829003601f168201915b505050505081565b600080610965836002611a9890919063ffffffff16565b50905080915050919050565b60006109a1826040518060600160405280602981526020016139de602991396002611ac79092919063ffffffff16565b9050919050565b606060098054600181600116156101000203166002900480601f016020809104026020016040519081016040528092919081815260200182805460018160011615610100020316600290048015610a405780601f10610a1557610100808354040283529160200191610a40565b820191906000526020600020905b815481529060010190602001808311610a2357829003601f168201915b5050505050905090565b60008073ffffffffffffffffffffffffffffffffffffffff168273ffffffffffffffffffffffffffffffffffffffff161415610abb576040517f08c379a0000000000000000000000000000000000000000000000000000000008152600401610ab290613627565b60405180910390fd5b610b02600160008473ffffffffffffffffffffffffffffffffffffffff1673ffffffffffffffffffffffffffffffffffffffff168152602001908152602001600020611ae6565b9050919050565b610b116124e6565b600d60003373ffffffffffffffffffffffffffffffffffffffff1673ffffffffffffffffffffffffffffffffffffffff168152602001908152602001600020805490508210610b95576040517f08c379a0000000000000000000000000000000000000000000000000000000008152600401610b8c90613647565b60405180910390fd5b610b9d6124e6565b600d60003373ffffffffffffffffffffffffffffffffffffffff1673ffffffffffffffffffffffffffffffffffffffff1681526020019081526020016000208381548110610be757fe5b9060005260206000209060040201604051806080016040529081600082018054600181600116156101000203166002900480601f016020809104026020016040519081016040528092919081815260200182805460018160011615610100020316600290048015610c995780601f10610c6e57610100808354040283529160200191610c99565b820191906000526020600020905b815481529060010190602001808311610c7c57829003601f168201915b505050505081526020016001820154815260200160028201548152602001600382015481525050905080915050919050565b606060078054600181600116156101000203166002900480601f016020809104026020016040519081016040528092919081815260200182805460018160011615610100020316600290048015610d635780601f10610d3857610100808354040283529160200191610d63565b820191906000526020600020905b815481529060010190602001808311610d4657829003601f168201915b5050505050905090565b81600c81604051610d7e91906133e6565b908152602001604051809103902060009054906101000a900473ffffffffffffffffffffffffffffffffffffffff1673ffffffffffffffffffffffffffffffffffffffff163373ffffffffffffffffffffffffffffffffffffffff1614610e1a576040517f08c379a0000000000000000000000000000000000000000000000000000000008152600401610e1190613527565b60405180910390fd5b8282600b82604051610e2c91906133e6565b908152602001604051809103902060009054906101000a900460ff16610e87576040517f08c379a0000000000000000000000000000000000000000000000000000000008152600401610e7e90613747565b60405180910390fd5b600b81604051610e9791906133e6565b908152602001604051809103902060009054906101000a900460ff1615610ef3576040517f08c379a0000000000000000000000000000000000000000000000000000000008152600401610eea90613587565b60405180910390fd5b6000600b86604051610f0591906133e6565b908152602001604051809103902060006101000a81548160ff0219169083151502179055506000600c86604051610f3c91906133e6565b908152602001604051809103902060006101000a81548173ffffffffffffffffffffffffffffffffffffffff021916908373ffffffffffffffffffffffffffffffffffffffff1602179055506001600b85604051610f9a91906133e6565b908152602001604051809103902060006101000a81548160ff02191690831515021790555033600c85604051610fd091906133e6565b908152602001604051809103902060006101000a81548173ffffffffffffffffffffffffffffffffffffffff021916908373ffffffffffffffffffffffffffffffffffffffff1602179055505050505050565b61102b6116b3565b73ffffffffffffffffffffffffffffffffffffffff168273ffffffffffffffffffffffffffffffffffffffff161415611099576040517f08c379a0000000000000000000000000000000000000000000000000000000008152600401611090906135c7565b60405180910390fd5b80600560006110a66116b3565b73ffffffffffffffffffffffffffffffffffffffff1673ffffffffffffffffffffffffffffffffffffffff16815260200190815260200160002060008473ffffffffffffffffffffffffffffffffffffffff1673ffffffffffffffffffffffffffffffffffffffff16815260200190815260200160002060006101000a81548160ff0219169083151502179055508173ffffffffffffffffffffffffffffffffffffffff166111536116b3565b73ffffffffffffffffffffffffffffffffffffffff167f17307eab39ab6107e8899845ad3d59bd9653f200f220920489ca2b5937696c31836040516111989190613488565b60405180910390a35050565b6111b56111af6116b3565b83611789565b6111f4576040517f08c379a00000000000000000000000000000000000000000000000000000000081526004016111eb90613727565b60405180910390fd5b61120084848484611afb565b50505050565b6000600c8260405161121891906133e6565b908152602001604051809103902060009054906101000a900473ffffffffffffffffffffffffffffffffffffffff169050919050565b606061125982611696565b611298576040517f08c379a000000000000000000000000000000000000000000000000000000000815260040161128f906136e7565b60405180910390fd5b6060600860008481526020019081526020016000208054600181600116156101000203166002900480601f0160208091040260200160405190810160405280929190818152602001828054600181600116156101000203166002900480156113415780601f1061131657610100808354040283529160200191611341565b820191906000526020600020905b81548152906001019060200180831161132457829003601f168201915b5050505050905060006009805460018160011615610100020316600290049050141561137057809150506113d4565b6000815111156113a55760098160405160200161138e9291906133fd565b6040516020818303038152906040529150506113d4565b60096113b084611b57565b6040516020016113c19291906133fd565b6040516020818303038152906040529150505b919050565b600b816040516113e991906133e6565b908152602001604051809103902060009054906101000a900460ff1615611445576040517f08c379a000000000000000000000000000000000000000000000000000000000815260040161143c90613507565b60405180910390fd5b600a8190806001815401808255809150506001900390600052602060002001600090919091909150908051906020019061148092919061250e565b506000600a8054905090506114953382611c87565b6001600b836040516114a791906133e6565b908152602001604051809103902060006101000a81548160ff02191690831515021790555033600c836040516114dd91906133e6565b908152602001604051809103902060006101000a81548173ffffffffffffffffffffffffffffffffffffffff021916908373ffffffffffffffffffffffffffffffffffffffff1602179055506115316124e6565b6040518060800160405280848152602001603281526020016064815260200160968152509050600d60003373ffffffffffffffffffffffffffffffffffffffff1673ffffffffffffffffffffffffffffffffffffffff16815260200190815260200160002081908060018154018082558091505060019003906000526020600020906004020160009091909190915060008201518160000190805190602001906115dc92919061258e565b506020820151816001015560408201518160020155606082015181600301555050505050565b6000600560008473ffffffffffffffffffffffffffffffffffffffff1673ffffffffffffffffffffffffffffffffffffffff16815260200190815260200160002060008373ffffffffffffffffffffffffffffffffffffffff1673ffffffffffffffffffffffffffffffffffffffff16815260200190815260200160002060009054906101000a900460ff16905092915050565b60006116ac826002611e1590919063ffffffff16565b9050919050565b600033905090565b816004600083815260200190815260200160002060006101000a81548173ffffffffffffffffffffffffffffffffffffffff021916908373ffffffffffffffffffffffffffffffffffffffff160217905550808273ffffffffffffffffffffffffffffffffffffffff1661172e83610971565b73ffffffffffffffffffffffffffffffffffffffff167f8c5be1e5ebec7d5bd14f71427d1e84f3dd0314c0f7b2291e5b200ac8c7c3b92560405160405180910390a45050565b600061178282600001611e2f565b9050919050565b600061179482611696565b6117d3576040517f08c379a00000000000000000000000000000000000000000000000000000000081526004016117ca906135e7565b60405180910390fd5b60006117de83610971565b90508073ffffffffffffffffffffffffffffffffffffffff168473ffffffffffffffffffffffffffffffffffffffff16148061184d57508373ffffffffffffffffffffffffffffffffffffffff16611835846105d7565b73ffffffffffffffffffffffffffffffffffffffff16145b8061185e575061185d8185611602565b5b91505092915050565b8273ffffffffffffffffffffffffffffffffffffffff1661188782610971565b73ffffffffffffffffffffffffffffffffffffffff16146118dd576040517f08c379a00000000000000000000000000000000000000000000000000000000081526004016118d4906136c7565b60405180910390fd5b600073ffffffffffffffffffffffffffffffffffffffff168273ffffffffffffffffffffffffffffffffffffffff16141561194d576040517f08c379a0000000000000000000000000000000000000000000000000000000008152600401611944906135a7565b60405180910390fd5b611958838383611e40565b6119636000826116bb565b6119b481600160008673ffffffffffffffffffffffffffffffffffffffff1673ffffffffffffffffffffffffffffffffffffffff168152602001908152602001600020611e4590919063ffffffff16565b50611a0681600160008573ffffffffffffffffffffffffffffffffffffffff1673ffffffffffffffffffffffffffffffffffffffff168152602001908152602001600020611e5f90919063ffffffff16565b50611a1d81836002611e799092919063ffffffff16565b50808273ffffffffffffffffffffffffffffffffffffffff168473ffffffffffffffffffffffffffffffffffffffff167fddf252ad1be2c89b69c2b068fc378daa952ba7f163c4a11628f55a4df523b3ef60405160405180910390a4505050565b6000611a8d8360000183611eae565b60001c905092915050565b600080600080611aab8660000186611f1b565b915091508160001c8160001c8090509350935050509250929050565b6000611ada846000018460001b84611f9e565b60001c90509392505050565b6000611af48260000161202f565b9050919050565b611b06848484611867565b611b1284848484612040565b611b51576040517f08c379a0000000000000000000000000000000000000000000000000000000008152600401611b4890613547565b60405180910390fd5b50505050565b60606000821415611b9f576040518060400160405280600181526020017f30000000000000000000000000000000000000000000000000000000000000008152509050611c82565b600082905060005b60008214611bc9578080600101915050600a8281611bc157fe5b049150611ba7565b6060816040519080825280601f01601f191660200182016040528015611bfe5781602001600182028038833980820191505090505b50905060006001830390508593505b60008414611c7a57600a8481611c1f57fe5b0660300160f81b82828060019003935081518110611c3957fe5b60200101907effffffffffffffffffffffffffffffffffffffffffffffffffffffffffffff1916908160001a905350600a8481611c7257fe5b049350611c0d565b819450505050505b919050565b600073ffffffffffffffffffffffffffffffffffffffff168273ffffffffffffffffffffffffffffffffffffffff161415611cf7576040517f08c379a0000000000000000000000000000000000000000000000000000000008152600401611cee90613687565b60405180910390fd5b611d0081611696565b15611d40576040517f08c379a0000000000000000000000000000000000000000000000000000000008152600401611d3790613567565b60405180910390fd5b611d4c60008383611e40565b611d9d81600160008573ffffffffffffffffffffffffffffffffffffffff1673ffffffffffffffffffffffffffffffffffffffff168152602001908152602001600020611e5f90919063ffffffff16565b50611db481836002611e799092919063ffffffff16565b50808273ffffffffffffffffffffffffffffffffffffffff16600073ffffffffffffffffffffffffffffffffffffffff167fddf252ad1be2c89b69c2b068fc378daa952ba7f163c4a11628f55a4df523b3ef60405160405180910390a45050565b6000611e27836000018360001b612221565b905092915050565b600081600001805490509050919050565b505050565b6000611e57836000018360001b612244565b905092915050565b6000611e71836000018360001b61232c565b905092915050565b6000611ea5846000018460001b8473ffffffffffffffffffffffffffffffffffffffff1660001b61239c565b90509392505050565b600081836000018054905011611ef9576040517f08c379a0000000000000000000000000000000000000000000000000000000008152600401611ef0906134e7565b60405180910390fd5b826000018281548110611f0857fe5b9060005260206000200154905092915050565b60008082846000018054905011611f67576040517f08c379a0000000000000000000000000000000000000000000000000000000008152600401611f5e90613667565b60405180910390fd5b6000846000018481548110611f7857fe5b906000526020600020906002020190508060000154816001015492509250509250929050565b60008084600101600085815260200190815260200160002054905060008114158390612000576040517f08c379a0000000000000000000000000000000000000000000000000000000008152600401611ff791906134c5565b60405180910390fd5b5084600001600182038154811061201357fe5b9060005260206000209060020201600101549150509392505050565b600081600001805490509050919050565b60006120618473ffffffffffffffffffffffffffffffffffffffff16612478565b61206e5760019050612219565b600060608573ffffffffffffffffffffffffffffffffffffffff1663150b7a0260e01b6120996116b3565b8988886040516024016120af949392919061343c565b604051602081830303815290604052907bffffffffffffffffffffffffffffffffffffffffffffffffffffffff19166020820180517bffffffffffffffffffffffffffffffffffffffffffffffffffffffff838183161783525050505060405161211991906133cf565b6000604051808303816000865af19150503d8060008114612156576040519150601f19603f3d011682016040523d82523d6000602084013e61215b565b606091505b5091509150816121b3576000815111156121785780518082602001fd5b6040517f08c379a00000000000000000000000000000000000000000000000000000000081526004016121aa90613547565b60405180910390fd5b6000818060200190516121c99190810190612914565b905063150b7a0260e01b7bffffffffffffffffffffffffffffffffffffffffffffffffffffffff1916817bffffffffffffffffffffffffffffffffffffffffffffffffffffffff19161493505050505b949350505050565b600080836001016000848152602001908152602001600020541415905092915050565b60008083600101600084815260200190815260200160002054905060008114612320576000600182039050600060018660000180549050039050600086600001828154811061228f57fe5b90600052602060002001549050808760000184815481106122ac57fe5b90600052602060002001819055506001830187600101600083815260200190815260200160002081905550866000018054806122e457fe5b60019003818190600052602060002001600090559055866001016000878152602001908152602001600020600090556001945050505050612326565b60009150505b92915050565b600061233883836124c3565b612391578260000182908060018154018082558091505060019003906000526020600020016000909190919091505582600001805490508360010160008481526020019081526020016000208190555060019050612396565b600090505b92915050565b600080846001016000858152602001908152602001600020549050600081141561244357846000016040518060400160405280868152602001858152509080600181540180825580915050600190039060005260206000209060020201600090919091909150600082015181600001556020820151816001015550508460000180549050856001016000868152602001908152602001600020819055506001915050612471565b8285600001600183038154811061245657fe5b90600052602060002090600202016001018190555060009150505b9392505050565b60008060007fc5d2460186f7233c927e7db2dcc703c0e500b653ca82273b7bfad8045d85a47060001b9050833f91508082141580156124ba57506000801b8214155b92505050919050565b600080836001016000848152602001908152602001600020541415905092915050565b6040518060800160405280606081526020016000815260200160008152602001600081525090565b828054600181600116156101000203166002900490600052602060002090601f016020900481019282601f1061254f57805160ff191683800117855561257d565b8280016001018555821561257d579182015b8281111561257c578251825591602001919060010190612561565b5b50905061258a919061260e565b5090565b828054600181600116156101000203166002900490600052602060002090601f016020900481019282601f106125cf57805160ff19168380011785556125fd565b828001600101855582156125fd579182015b828111156125fc5782518255916020019190600101906125e1565b5b50905061260a919061260e565b5090565b61263091905b8082111561262c576000816000905550600101612614565b5090565b90565b60008135905061264281613981565b92915050565b60008135905061265781613998565b92915050565b60008135905061266c816139af565b92915050565b600081519050612681816139af565b92915050565b600082601f83011261269857600080fd5b81356126ab6126a6826137d1565b6137a4565b915080825260208301602083018583830111156126c757600080fd5b6126d283828461392e565b50505092915050565b600082601f8301126126ec57600080fd5b81356126ff6126fa826137fd565b6137a4565b9150808252602083016020830185838301111561271b57600080fd5b61272683828461392e565b50505092915050565b60008135905061273e816139c6565b92915050565b60006020828403121561275657600080fd5b600061276484828501612633565b91505092915050565b6000806040838503121561278057600080fd5b600061278e85828601612633565b925050602061279f85828601612633565b9150509250929050565b6000806000606084860312156127be57600080fd5b60006127cc86828701612633565b93505060206127dd86828701612633565b92505060406127ee8682870161272f565b9150509250925092565b6000806000806080858703121561280e57600080fd5b600061281c87828801612633565b945050602061282d87828801612633565b935050604061283e8782880161272f565b925050606085013567ffffffffffffffff81111561285b57600080fd5b61286787828801612687565b91505092959194509250565b6000806040838503121561288657600080fd5b600061289485828601612633565b92505060206128a585828601612648565b9150509250929050565b600080604083850312156128c257600080fd5b60006128d085828601612633565b92505060206128e18582860161272f565b9150509250929050565b6000602082840312156128fd57600080fd5b600061290b8482850161265d565b91505092915050565b60006020828403121561292657600080fd5b600061293484828501612672565b91505092915050565b60006020828403121561294f57600080fd5b600082013567ffffffffffffffff81111561296957600080fd5b612975848285016126db565b91505092915050565b6000806040838503121561299157600080fd5b600083013567ffffffffffffffff8111156129ab57600080fd5b6129b7858286016126db565b925050602083013567ffffffffffffffff8111156129d457600080fd5b6129e0858286016126db565b9150509250929050565b6000602082840312156129fc57600080fd5b6000612a0a8482850161272f565b91505092915050565b612a1c816138ba565b82525050565b612a2b816138a8565b82525050565b612a3a816138cc565b82525050565b6000612a4b8261383e565b612a55818561385f565b9350612a6581856020860161393d565b612a6e81613970565b840191505092915050565b6000612a848261383e565b612a8e8185613870565b9350612a9e81856020860161393d565b80840191505092915050565b6000612ab582613854565b612abf818561388c565b9350612acf81856020860161393d565b612ad881613970565b840191505092915050565b6000612aee82613854565b612af8818561389d565b9350612b0881856020860161393d565b80840191505092915050565b6000612b1f82613849565b612b29818561387b565b9350612b3981856020860161393d565b612b4281613970565b840191505092915050565b6000612b5882613849565b612b62818561388c565b9350612b7281856020860161393d565b612b7b81613970565b840191505092915050565b600081546001811660008114612ba35760018114612bc857612c0c565b607f6002830416612bb4818761389d565b955060ff1983168652808601935050612c0c565b60028204612bd6818761389d565b9550612be185613829565b60005b82811015612c0357815481890152600182019150602081019050612be4565b82880195505050505b505092915050565b6000612c2160228361388c565b91507f456e756d657261626c655365743a20696e646578206f7574206f6620626f756e60008301527f64730000000000000000000000000000000000000000000000000000000000006020830152604082019050919050565b6000612c8760128361388c565b91507f4e616d6520616c72656164792074616b656e00000000000000000000000000006000830152602082019050919050565b6000612cc760228361388c565b91507f4f6e6c79206f776e65722063616e2063616c6c20746869732066756e6374696f60008301527f6e2e0000000000000000000000000000000000000000000000000000000000006020830152604082019050919050565b6000612d2d60328361388c565b91507f4552433732313a207472616e7366657220746f206e6f6e20455243373231526560008301527f63656976657220696d706c656d656e74657200000000000000000000000000006020830152604082019050919050565b6000612d93601c8361388c565b91507f4552433732313a20746f6b656e20616c7265616479206d696e746564000000006000830152602082019050919050565b6000612dd360178361388c565b91507f4e6577206e616d6520616c726561647920746f6b656e2e0000000000000000006000830152602082019050919050565b6000612e1360248361388c565b91507f4552433732313a207472616e7366657220746f20746865207a65726f2061646460008301527f72657373000000000000000000000000000000000000000000000000000000006020830152604082019050919050565b6000612e7960198361388c565b91507f4552433732313a20617070726f766520746f2063616c6c6572000000000000006000830152602082019050919050565b6000612eb9602c8361388c565b91507f4552433732313a206f70657261746f7220717565727920666f72206e6f6e657860008301527f697374656e7420746f6b656e00000000000000000000000000000000000000006020830152604082019050919050565b6000612f1f60388361388c565b91507f4552433732313a20617070726f76652063616c6c6572206973206e6f74206f7760008301527f6e6572206e6f7220617070726f76656420666f7220616c6c00000000000000006020830152604082019050919050565b6000612f85602a8361388c565b91507f4552433732313a2062616c616e636520717565727920666f7220746865207a6560008301527f726f2061646472657373000000000000000000000000000000000000000000006020830152604082019050919050565b6000612feb60238361388c565b91507f5370656369666965642061206e6f6e6578697374616e7420746f6b656e20696e60008301527f64657800000000000000000000000000000000000000000000000000000000006020830152604082019050919050565b600061305160228361388c565b91507f456e756d657261626c654d61703a20696e646578206f7574206f6620626f756e60008301527f64730000000000000000000000000000000000000000000000000000000000006020830152604082019050919050565b60006130b760208361388c565b91507f4552433732313a206d696e7420746f20746865207a65726f20616464726573736000830152602082019050919050565b60006130f7602c8361388c565b91507f4552433732313a20617070726f76656420717565727920666f72206e6f6e657860008301527f697374656e7420746f6b656e00000000000000000000000000000000000000006020830152604082019050919050565b600061315d60298361388c565b91507f4552433732313a207472616e73666572206f6620746f6b656e2074686174206960008301527f73206e6f74206f776e00000000000000000000000000000000000000000000006020830152604082019050919050565b60006131c3602f8361388c565b91507f4552433732314d657461646174613a2055524920717565727920666f72206e6f60008301527f6e6578697374656e7420746f6b656e00000000000000000000000000000000006020830152604082019050919050565b600061322960218361388c565b91507f4552433732313a20617070726f76616c20746f2063757272656e74206f776e6560008301527f72000000000000000000000000000000000000000000000000000000000000006020830152604082019050919050565b600061328f60318361388c565b91507f4552433732313a207472616e736665722063616c6c6572206973206e6f74206f60008301527f776e6572206e6f7220617070726f7665640000000000000000000000000000006020830152604082019050919050565b60006132f560238361388c565b91507f4f6c64206e616d65206e6f742061737369676e656420746f20616e7920746f6b60008301527f656e2e00000000000000000000000000000000000000000000000000000000006020830152604082019050919050565b6000608083016000830151848203600086015261336b8282612b14565b915050602083015161338060208601826133b1565b50604083015161339360408601826133b1565b5060608301516133a660608601826133b1565b508091505092915050565b6133ba81613924565b82525050565b6133c981613924565b82525050565b60006133db8284612a79565b915081905092915050565b60006133f28284612ae3565b915081905092915050565b60006134098285612b86565b91506134158284612ae3565b91508190509392505050565b60006020820190506134366000830184612a22565b92915050565b60006080820190506134516000830187612a13565b61345e6020830186612a22565b61346b60408301856133c0565b818103606083015261347d8184612a40565b905095945050505050565b600060208201905061349d6000830184612a31565b92915050565b600060208201905081810360008301526134bd8184612b4d565b905092915050565b600060208201905081810360008301526134df8184612aaa565b905092915050565b6000602082019050818103600083015261350081612c14565b9050919050565b6000602082019050818103600083015261352081612c7a565b9050919050565b6000602082019050818103600083015261354081612cba565b9050919050565b6000602082019050818103600083015261356081612d20565b9050919050565b6000602082019050818103600083015261358081612d86565b9050919050565b600060208201905081810360008301526135a081612dc6565b9050919050565b600060208201905081810360008301526135c081612e06565b9050919050565b600060208201905081810360008301526135e081612e6c565b9050919050565b6000602082019050818103600083015261360081612eac565b9050919050565b6000602082019050818103600083015261362081612f12565b9050919050565b6000602082019050818103600083015261364081612f78565b9050919050565b6000602082019050818103600083015261366081612fde565b9050919050565b6000602082019050818103600083015261368081613044565b9050919050565b600060208201905081810360008301526136a0816130aa565b9050919050565b600060208201905081810360008301526136c0816130ea565b9050919050565b600060208201905081810360008301526136e081613150565b9050919050565b60006020820190508181036000830152613700816131b6565b9050919050565b600060208201905081810360008301526137208161321c565b9050919050565b6000602082019050818103600083015261374081613282565b9050919050565b60006020820190508181036000830152613760816132e8565b9050919050565b60006020820190508181036000830152613781818461334e565b905092915050565b600060208201905061379e60008301846133c0565b92915050565b6000604051905081810181811067ffffffffffffffff821117156137c757600080fd5b8060405250919050565b600067ffffffffffffffff8211156137e857600080fd5b601f19601f8301169050602081019050919050565b600067ffffffffffffffff82111561381457600080fd5b601f19601f8301169050602081019050919050565b60008190508160005260206000209050919050565b600081519050919050565b600081519050919050565b600081519050919050565b600082825260208201905092915050565b600081905092915050565b600082825260208201905092915050565b600082825260208201905092915050565b600081905092915050565b60006138b382613904565b9050919050565b60006138c582613904565b9050919050565b60008115159050919050565b60007fffffffff0000000000000000000000000000000000000000000000000000000082169050919050565b600073ffffffffffffffffffffffffffffffffffffffff82169050919050565b6000819050919050565b82818337600083830152505050565b60005b8381101561395b578082015181840152602081019050613940565b8381111561396a576000848401525b50505050565b6000601f19601f8301169050919050565b61398a816138a8565b811461399557600080fd5b50565b6139a1816138cc565b81146139ac57600080fd5b50565b6139b8816138d8565b81146139c357600080fd5b50565b6139cf81613924565b81146139da57600080fd5b5056fe4552433732313a206f776e657220717565727920666f72206e6f6e6578697374656e7420746f6b656ea2646970667358221220969d2800f1ea43b3028865ba0c202882570d908b5c5161355a3b6572c8cc165964736f6c63430006020033",
  "source": "//SPDX-License-Identifier: UNLICENSED\npragma solidity ^0.6.0;\npragma experimental ABIEncoderV2;\n\nimport \"../node_modules/@openzeppelin/contracts/token/ERC721/ERC721.sol\";\n\ncontract Nyfti is ERC721 {\n    string[] public names;\n    struct statBlock {\n        string name;\n        uint speed;\n        uint health;\n        uint attackPower;\n    }\n\n    mapping(string => bool) _nameExists;\n    mapping(string => address) _tokenOwner;\n    mapping(address => statBlock[]) _ownedTokens;\n\n     modifier onlyOwner(string memory _name) {\n        require(\n            msg.sender == _tokenOwner[_name],\n            \"Only owner can call this function.\"\n        );\n        _;\n    }\n\n     modifier newName(string memory _oldName, string memory _newName) {\n        require(\n            _nameExists[_oldName],\n            \"Old name not assigned to any token.\"\n        );\n        require(\n            !_nameExists[_newName],\n            \"New name already token.\"\n        );\n        _;\n    }\n\n    constructor() ERC721(\"Nyfti\", \"NFT\") public {\n    }\n\n    function mint(string memory _name) public {\n        require(!_nameExists[_name], 'Name already taken');\n        names.push(_name);\n        uint _id = names.length;\n\n        //ERC-721 mint\n        _mint(msg.sender, _id);\n\n        //Record ownership data to contract\n        _nameExists[_name] = true;\n        _tokenOwner[_name] = msg.sender;\n        statBlock memory stats = statBlock(_name, 50, 100, 150);\n        _ownedTokens[msg.sender].push(stats);\n    }\n\n    function checkName(string memory _name)\n        public\n        view\n        returns(bool)\n    {\n        return _nameExists[_name];\n    }\n\n    function checkOwner(string memory _name)\n        public\n        view\n        returns(address)\n    {\n        return _tokenOwner[_name];\n    }\n\n    function rename(string memory _oldName, string memory _newName)\n        public\n        onlyOwner(_oldName)\n        newName(_oldName, _newName)\n    {\n        _nameExists[_oldName] = false;\n        _tokenOwner[_oldName] = address(0x0);\n        _nameExists[_newName] = true;\n        _tokenOwner[_newName] = msg.sender;\n\n    }\n\n    function getStatBlock(uint _block)\n        public\n        view\n        returns(statBlock memory)\n    {\n        require(_block < _ownedTokens[msg.sender].length, \"Specified a nonexistant token index\");\n        statBlock memory resp = _ownedTokens[msg.sender][_block];\n        return resp;\n    }\n}",
  "sourcePath": "/home/user/sandbox/cryptomon-full/contracts/Nyfti.sol",
  "compiler": {
    "name": "solc",
    "version": "0.6.2+commit.bacdbe57.Emscripten.clang"
  },
  "schemaVersion": "3.2.0",
  "updatedAt": "2020-05-31T19:08:21.193Z",
  "networkType": "ethereum",
  "devdoc": {
    "methods": {
      "approve(address,uint256)": {
        "details": "Approves another address to transfer the given token ID The zero address indicates there is no approved address. There can only be one approved address per token at a given time. Can only be called by the token owner or an approved operator.",
        "params": {
          "to": "address to be approved for the given token ID",
          "tokenId": "uint256 ID of the token to be approved"
        }
      },
      "balanceOf(address)": {
        "details": "Gets the balance of the specified address.",
        "params": {
          "owner": "address to query the balance of"
        },
        "returns": {
          "_0": "uint256 representing the amount owned by the passed address"
        }
      },
      "baseURI()": {
        "details": "Returns the base URI set via {_setBaseURI}. This will be automatically added as a prefix in {tokenURI} to each token's URI, or to the token ID if no specific URI is set for that token ID."
      },
      "getApproved(uint256)": {
        "details": "Gets the approved address for a token ID, or zero if no address set Reverts if the token ID does not exist.",
        "params": {
          "tokenId": "uint256 ID of the token to query the approval of"
        },
        "returns": {
          "_0": "address currently approved for the given token ID"
        }
      },
      "isApprovedForAll(address,address)": {
        "details": "Tells whether an operator is approved by a given owner.",
        "params": {
          "operator": "operator address which you want to query the approval of",
          "owner": "owner address which you want to query the approval of"
        },
        "returns": {
          "_0": "bool whether the given operator is approved by the given owner"
        }
      },
      "name()": {
        "details": "Gets the token name.",
        "returns": {
          "_0": "string representing the token name"
        }
      },
      "ownerOf(uint256)": {
        "details": "Gets the owner of the specified token ID.",
        "params": {
          "tokenId": "uint256 ID of the token to query the owner of"
        },
        "returns": {
          "_0": "address currently marked as the owner of the given token ID"
        }
      },
      "safeTransferFrom(address,address,uint256)": {
        "details": "Safely transfers the ownership of a given token ID to another address If the target address is a contract, it must implement {IERC721Receiver-onERC721Received}, which is called upon a safe transfer, and return the magic value `bytes4(keccak256(\"onERC721Received(address,address,uint256,bytes)\"))`; otherwise, the transfer is reverted. Requires the msg.sender to be the owner, approved, or operator",
        "params": {
          "from": "current owner of the token",
          "to": "address to receive the ownership of the given token ID",
          "tokenId": "uint256 ID of the token to be transferred"
        }
      },
      "safeTransferFrom(address,address,uint256,bytes)": {
        "details": "Safely transfers the ownership of a given token ID to another address If the target address is a contract, it must implement {IERC721Receiver-onERC721Received}, which is called upon a safe transfer, and return the magic value `bytes4(keccak256(\"onERC721Received(address,address,uint256,bytes)\"))`; otherwise, the transfer is reverted. Requires the _msgSender() to be the owner, approved, or operator",
        "params": {
          "_data": "bytes data to send along with a safe transfer check",
          "from": "current owner of the token",
          "to": "address to receive the ownership of the given token ID",
          "tokenId": "uint256 ID of the token to be transferred"
        }
      },
      "setApprovalForAll(address,bool)": {
        "details": "Sets or unsets the approval of a given operator An operator is allowed to transfer all tokens of the sender on their behalf.",
        "params": {
          "approved": "representing the status of the approval to be set",
          "operator": "operator address to set the approval"
        }
      },
      "supportsInterface(bytes4)": {
        "details": "See {IERC165-supportsInterface}.     * Time complexity O(1), guaranteed to always use less than 30 000 gas."
      },
      "symbol()": {
        "details": "Gets the token symbol.",
        "returns": {
          "_0": "string representing the token symbol"
        }
      },
      "tokenByIndex(uint256)": {
        "details": "Gets the token ID at a given index of all the tokens in this contract Reverts if the index is greater or equal to the total number of tokens.",
        "params": {
          "index": "uint256 representing the index to be accessed of the tokens list"
        },
        "returns": {
          "_0": "uint256 token ID at the given index of the tokens list"
        }
      },
      "tokenOfOwnerByIndex(address,uint256)": {
        "details": "Gets the token ID at a given index of the tokens list of the requested owner.",
        "params": {
          "index": "uint256 representing the index to be accessed of the requested tokens list",
          "owner": "address owning the tokens list to be accessed"
        },
        "returns": {
          "_0": "uint256 token ID at the given index of the tokens list owned by the requested address"
        }
      },
      "tokenURI(uint256)": {
        "details": "Returns the URI for a given token ID. May return an empty string.     * If a base URI is set (via {_setBaseURI}), it is added as a prefix to the token's own URI (via {_setTokenURI}).     * If there is a base URI but no token URI, the token's ID will be used as its URI when appending it to the base URI. This pattern for autogenerated token URIs can lead to large gas savings.     * .Examples |=== |`_setBaseURI()` |`_setTokenURI()` |`tokenURI()` | \"\" | \"\" | \"\" | \"\" | \"token.uri/123\" | \"token.uri/123\" | \"token.uri/\" | \"123\" | \"token.uri/123\" | \"token.uri/\" | \"\" | \"token.uri/<tokenId>\" |===     * Requirements:     * - `tokenId` must exist."
      },
      "totalSupply()": {
        "details": "Gets the total amount of tokens stored by the contract.",
        "returns": {
          "_0": "uint256 representing the total amount of tokens"
        }
      },
      "transferFrom(address,address,uint256)": {
        "details": "Transfers the ownership of a given token ID to another address. Usage of this method is discouraged, use {safeTransferFrom} whenever possible. Requires the msg.sender to be the owner, approved, or operator.",
        "params": {
          "from": "current owner of the token",
          "to": "address to receive the ownership of the given token ID",
          "tokenId": "uint256 ID of the token to be transferred"
        }
      }
    }
  },
  "userdoc": {
    "methods": {}
  }
}